:040000000FC1029793
:040004000882829359
:040008000002A4034B
:04000C000FC1049785
:0400100008048493C9
:04001400010009934B
:0400180000000913C8
:04001C000004A283B7
:040020000124800B2C
:04002400FE040413BF
:040028000044849379
:04002C0000805E638F
:040030000019091397
:04003400FF3914E399
:040038002000000B99
:04003C006000028BD3
:04004000FE029EE33B
:04004400FD5FF06FFD
:040048000204029319
:04004C000059131331
:04005000006282B315
:040054004050000B0D
:040058006000028BB7
:04005C00FE029EE31F
:040060000000041385
:0400640000400493C1
:040068000FC10917A4
:04006C00F9C90913B2
:040070008080028BFF
:04007400001404135D
:0400780000592023E8
:04007C00004909131B
:04008000FE9418E3EF
:040084000FC102970F
:04008800004282931D
:04008C000002A403C7
:040090000FC1049701
:04009400FFC484938E
:0400980001000993C7
:04009C000000091344
:0400A0000004A28333
:0400A4000124900B98
:0400A800FE0404133B
:0400AC0000448493F5
:0400B00000805E630B
:0400B4000019091313
:0400B800FF3914E315
:0400BC002000100B05
:0400C0006000128B3F
:0400C400FE029EE3B7
:0400C800FD5FF06F79
:0400CC000204029395
:0400D00000591313AD
:0400D400006282B391
:0400D8004050100B79
:0400DC006000128B23
:0400E000FE029EE39B
:0400E4000000041301
:0400E800005004932D
:0400EC000FC1091720
:0400F000F289091375
:0400F4008080128B6B
:0400F80000140413D9
:0400FC000059202364
:040100000049091396
:04010400FE9418E36A
:040108000FC102978A
:04010C00F8028293E0
:040110000002A40342
:040114000FC104977C
:04011800F784849351
:04011C000100099342
:0401200000000913BF
:040124000004A283AE
:040128000124A00B03
:04012C00FE040413B6
:040130000044849370
:0401340000805E6386
:04013800001909138E
:04013C00FF3914E390
:040140002000200B70
:040144006000228BAA
:04014800FE029EE332
:04014C00FD5FF06FF4
:040150000204029310
:040154000059131328
:04015800006282B30C
:04015C004050200BE4
:040160006000228B8E
:04016400FE029EE316
:04016800000004137C
:04016C000080049378
:040170000FC109179B
:04017400EB890913F7
:040178008080228BD6
:04017C000014041354
:0401800000592023DF
:040184000049091312
:04018800FE9418E3E6
:04018C000FC1029706
:04019000EFC28293A5
:040194000002A403BE
:040198000FC10497F8
:04019C00EF44849315
:0401A00002000993BD
:0401A400000009133B
:0401A8000004A2832A
:0401AC000124B00B6F
:0401B000FE04041332
:0401B40000448493EC
:0401B80000805E6302
:0401BC00001909130A
:0401C000FF3914E30C
:0401C4002000300BDC
:0401C8006000328B16
:0401CC00FE029EE3AE
:0401D000FD5FF06F70
:0401D400020402938C
:0401D80000591313A4
:0401DC00006282B388
:0401E0004050300B50
:0401E4006000328BFA
:0401E800FE029EE392
:0401EC0000000413F8
:0401F0000100049373
:0401F4000FC1091717
:0401F800E5490913B9
:0401FC008080328B42
:0402000000140413CF
:04020400005920235A
:04020800004909138D
:04020C00FE9418E361
:040210000030029325
:040214000050202353
:00000001FF
