:040000000FC1041711
:0400040000040413DD
:040008000044248309
:04000C000084290340
:0400100000C429837C
:0400140001042A03B6
:0400180001E48A93E2
:04001C000294202307
:04002000020424832F
:04002400001A2B1380
:04002800001A3B136C
:04002C0003FACB13F5
:0400300003CAEB1301
:0400340003CAFB13ED
:0400380000549B13C2
:04003C0000FA5B1358
:0400400040FA5B1314
:0400440001448B33B5
:0400480001390B333C
:04004C00414A8B3367
:0400500001391B3324
:040054000144AB3385
:040058000144BB3371
:04005C00013A4B33E7
:04006000013A5B33D3
:04006400413A5B338F
:040068000124EB3351
:04006C000124FB333D
:0400700001400BEF51
:04007400024424839B
:0400780002842903D2
:04007C0002C429830E
:04008000000C0BE77E
:0400840003442223EC
:0400880003542423D6
:04008C0003642623C0
:04009000000B8C676E
:040094000000001355
:040098000044248379
:04009C0000842903B0
:0400A00000C42983EC
:0400A400012984B3F7
:0400A800014484B3D8
:0400AC0000042483A5
:0400B000009484B381
:0400B4000000001335
:0400B800000004B38D
:0400BC0000500913D4
:0400C0000014849311
:0400C400FF249EE394
:0400C80000548493C9
:00000001FF
