:040000000FC1029793
:0400040001028293E0
:040008000002A4034B
:04000C000FC1049785
:040010000084849351
:04001400020009934A
:0400180000000913C8
:04001C000004A283B7
:040020000124B00BFC
:04002400FE040413BF
:040028000044849379
:04002C0000805E638F
:040030000019091397
:04003400FF3914E399
:040038002000300B69
:04003C006000328BA3
:04004000FE029EE33B
:04004400FD5FF06FFD
:040048000204029319
:04004C000059131331
:04005000006282B315
:040054004050300BDD
:040058006000328B87
:04005C00FE029EE31F
:040060000000041385
:040064000100049300
:040068000FC10917A4
:04006C00F9890913F2
:040070008080328BCF
:04007400001404135D
:0400780000592023E8
:04007C00004909131B
:04008000FE9418E3EF
:00000001FF
