:040000000FC1029793
:0400040001028293E0
:040008000002A4034B
:04000C000FC1049785
:040010000084849351
:04001400010009934B
:0400180000000913C8
:04001C000004A283B7
:040020000124800B2C
:04002400FE040413BF
:040028000044849379
:04002C0000805E638F
:040030000019091397
:04003400FF3914E399
:040038002000000B99
:04003C006000028BD3
:04004000FE029EE33B
:04004400FD5FF06FFD
:040048000204029319
:04004C000059131331
:04005000006282B315
:040054004050000B0D
:040058006000028BB7
:04005C00FE029EE31F
:040060000000041385
:0400640000400493C1
:040068000FC10917A4
:04006C00F9890913F2
:040070008080028BFF
:04007400001404135D
:0400780000592023E8
:04007C00004909131B
:04008000FE9418E3EF
:00000001FF
