:040000007F10006FFE
:04000400FE010113E5
:0400080000812E2322
:04000C0002010413D6
:04001000FEA4262301
:04001400FEC427837C
:040018000007AA2310
:04001C00FEC4278374
:040020000147A703EA
:04002400FEC427836C
:0400280000E7A82322
:04002C00FEC4278364
:0400300067452737C2
:0400340000070713A7
:040038003017071363
:04003C0000E7A02316
:04004000FEC4278350
:04004400EFCDB7370E
:040048000007071393
:04004C00B897071347
:0400500000E7A22300
:04005400FEC427833C
:0400580098BAE73734
:04005C00000707137F
:04006000CFE70713CC
:0400640000E7A423EA
:04006800FEC4278328
:04006C0010325737C0
:04007000000707136B
:0400740047670713C0
:0400780000E7A623D4
:04007C00000000136D
:0400800001C1240393
:040084000201011361
:04008800000080678D
:04008C00FD0101135E
:040090000211262310
:04009400028124239E
:040098000301041349
:04009C00FCA42E236F
:0400A000FCB42C235D
:0400A400FCC42A234B
:0400A800FDC42783E9
:0400AC000107A7831E
:0400B0000037D793AB
:0400B40003F7F793C4
:0400B800FEF424230B
:0400BC00FDC42783D5
:0400C0000107A7038A
:0400C400FD4427834D
:0400C80000379793D3
:0400CC0000F70733FF
:0400D000FDC42783C1
:0400D40000E7A82376
:0400D800FDC42783B9
:0400DC000107A7036E
:0400E000FD44278331
:0400E40000379793B7
:0400E80000F77C633E
:0400EC00FDC42783A5
:0400F0000147A7839A
:0400F4000017871357
:0400F800FDC4278399
:0400FC0000E7AA234C
:04010000FDC4278390
:040104000147A70305
:04010800FD44278308
:04010C0001D7D793AD
:0401100000F70733BA
:04011400FDC427837C
:0401180000E7AA232F
:04011C0004000713C1
:04012000FE842783AF
:0401240040F707B3E6
:04012800FEF422239C
:04012C00FD44270364
:04013000FE442783DF
:0401340008F76C63F9
:04013800FE84278397
:04013C00010787939D
:04014000FDC42703D0
:0401440000F707B306
:040148000087879312
:04014C00FE44260344
:04015000FD84258382
:0401540000F005337F
:040158000000231769
:04015C00D64300E79F
:04016000FDC42703B0
:04016400FDC427832C
:0401680001878793F1
:04016C0000F005B3E7
:0401700000E0053373
:04017400000003176D
:04017800194300E740
:04017C00FE44278393
:04018000FEF4262340
:040184000300006F05
:04018800FDC4268309
:04018C00FD842703C4
:04019000FEC42783FF
:0401940000F707B3B6
:0401980000F005B3BB
:04019C0000D0053357
:0401A0000000031741
:0401A400168300E7D7
:0401A800FEC42783E7
:0401AC00040787932A
:0401B000FEF4262310
:0401B400FEC42783DB
:0401B80003F787932F
:0401BC00FD442703D4
:0401C000FCE7E4E391
:0401C400FE042423EE
:0401C8000080006F44
:0401CC00FE042623E4
:0401D000FE842783FF
:0401D4000107879305
:0401D800FDC4270338
:0401DC0000F707B36E
:0401E000008786937B
:0401E400FD8427036C
:0401E800FEC42783A7
:0401EC0000F705B360
:0401F000FD442703A0
:0401F400FEC427839B
:0401F80040F707B312
:0401FC0000F00633D6
:0402000000D00533F2
:0402040000002317BC
:04020800CB8300E7BD
:04020C0000000013DB
:0402100002C1208384
:04021400028124033C
:0402180003010113CA
:04021C0000008067F7
:04022000FD010113C8
:04022400021126237A
:040228000281242308
:04022C0003010413B3
:04023000FCA42E23D9
:04023400FCB42C23C7
:04023800FD84278397
:04023C00010787131C
:04024000FE0407931E
:04024400008006131D
:0402480000E005B31A
:04024C0000F0053386
:040250000000231770
:04025400A88300E794
:04025800FD84278377
:04025C000107A7836C
:040260000037D793F9
:0402640003F7F79312
:04026800FEF4262357
:04026C00FEC42703A2
:04027000037007937D
:0402740000E7EA6352
:0402780003800713E5
:04027C00FEC4278312
:0402800040F707B389
:040284000100006F06
:0402880007800713D1
:04028C00FEC4278302
:0402900040F707B379
:04029400FEF424232D
:04029800FE842603B7
:04029C000FC10597F2
:0402A000D645859327
:0402A400FD842503AD
:0402A8000000031738
:0402AC00DE4300E746
:0402B000FE040793AE
:0402B40000800613AD
:0402B80000F005B39A
:0402BC00FD84250395
:0402C0000000031720
:0402C400DCC300E7B0
:0402C800FD84278307
:0402CC000100061314
:0402D00000F005B382
:0402D400FDC425033D
:0402D80000002317E8
:0402DC00A00300E794
:0402E000058006137C
:0402E400000005937E
:0402E800FD84250369
:0402EC0000002317D4
:0402F000C38300E7DD
:0402F40000000013F3
:0402F80002C120839C
:0402FC000281240354
:0403000003010113E1
:04030400000080670E
:04030800F8010113E4
:04030C0006112E2385
:0403100006812C2313
:0403140008010413C5
:04031800F8A42623FC
:04031C00F8B42423EA
:04032000F8C4278373
:040324000007A783A4
:04032800FEF4262396
:04032C00F8C4278367
:040330000047A78358
:04033400FEF424238C
:04033800F8C427835B
:04033C000087A7830C
:04034000FEF4222382
:04034400F8C427834F
:0403480000C7A783C0
:04034C00FEF4202378
:04035000F9C4079352
:040354000400061388
:04035800F88425837D
:04035C0000F0053375
:04036000000023175F
:04036400A88300E783
:04036800FC042E2340
:04036C00FE842703E1
:04037000FE4427839D
:0403740000F77733E4
:04037800FE84278355
:04037C00FFF7C6932E
:04038000FE042783CD
:0403840000F6F7B3D5
:0403880000F76733E0
:04038C00F9C4278306
:0403900000F7073338
:04039400FEC42783F9
:0403980000F7073330
:04039C00D76AA7B7BE
:0403A0000007879338
:0403A400478787936D
:0403A80000F707B3A0
:0403AC00FEF4262312
:0403B000FEC42783DD
:0403B4000077971324
:0403B8000197D7933F
:0403BC0000F767B32C
:0403C000FEF42623FE
:0403C400FEC4270349
:0403C800FE84278305
:0403CC0000F707B37C
:0403D000FEF42623EE
:0403D400FEC4270339
:0403D800FE842783F5
:0403DC0000F777337C
:0403E000FEC42783AD
:0403E400FFF7C693C6
:0403E800FE44278325
:0403EC0000F6F7B36D
:0403F00000F7673378
:0403F400FA0427835D
:0403F80000F70733D0
:0403FC00FE04278351
:0404000000F70733C7
:04040400E8C7B7B7D7
:0404080000078793CF
:04040C0075678793F6
:0404100000F707B337
:04041400FEF42023AF
:04041800FE04278334
:04041C0000C797136B
:040420000147D79326
:0404240000F767B3C3
:04042800FEF420239B
:04042C00FE042703A0
:04043000FEC427835C
:0404340000F707B313
:04043800FEF420238B
:04043C00FE04270390
:04044000FEC427834C
:0404440000F7773313
:04044800FE04278304
:04044C00FFF7C6935D
:04045000FE8427837C
:0404540000F6F7B304
:0404580000F767330F
:04045C00FA442783B4
:0404600000F7073367
:04046400FE442783A8
:0404680000F707335F
:04046C00242077B71A
:040470000007879367
:040474000DB78793A6
:0404780000F707B3CF
:04047C00FEF4222345
:04048000FE4427838C
:0404840000F7D71393
:04048800011797932E
:04048C0000F767B35B
:04049000FEF4222331
:04049400FE442703F8
:04049800FE042783B4
:04049C0000F707B3AB
:0404A000FEF4222321
:0404A400FE442703E8
:0404A800FE042783A4
:0404AC0000F77733AB
:0404B000FE4427835C
:0404B400FFF7C693F5
:0404B800FEC42783D4
:0404BC0000F6F7B39C
:0404C00000F76733A7
:0404C400FA8427830C
:0404C80000F70733FF
:0404CC00FE84278300
:0404D00000F70733F7
:0404D400C1BDD7B718
:0404D80000078793FF
:0404DC00EEE787932D
:0404E00000F707B367
:0404E400FEF42423DB
:0404E800FE842783E4
:0404EC0000A7D7137B
:0404F0000167979376
:0404F40000F767B3F3
:0404F800FEF42423C7
:0404FC00FE84270350
:04050000FE4427830B
:0405040000F707B342
:04050800FEF42423B6
:04050C00FE8427033F
:04051000FE442783FB
:0405140000F7773342
:04051800FE842783B3
:04051C00FFF7C6938C
:04052000FE0427832B
:0405240000F6F7B333
:0405280000F767333E
:04052C00FAC4278363
:0405300000F7073396
:04053400FEC4278357
:0405380000F707338E
:04053C00F57C17B77C
:040540000007879396
:04054400FAF78793A8
:0405480000F707B3FE
:04054C00FEF4262370
:04055000FEC427833B
:040554000077971382
:040558000197D7939D
:04055C0000F767B38A
:04056000FEF426235C
:04056400FEC42703A7
:04056800FE84278363
:04056C0000F707B3DA
:04057000FEF426234C
:04057400FEC4270397
:04057800FE84278353
:04057C0000F77733DA
:04058000FEC427830B
:04058400FFF7C69324
:04058800FE44278383
:04058C0000F6F7B3CB
:0405900000F76733D6
:04059400FB042783BA
:0405980000F707332E
:04059C00FE042783AF
:0405A00000F7073326
:0405A4004787C7B707
:0405A800000787932E
:0405AC0062A7879328
:0405B00000F707B396
:0405B400FEF420230E
:0405B800FE04278393
:0405BC0000C79713CA
:0405C0000147D79385
:0405C40000F767B322
:0405C800FEF42023FA
:0405CC00FE042703FF
:0405D000FEC42783BB
:0405D40000F707B372
:0405D800FEF42023EA
:0405DC00FE042703EF
:0405E000FEC42783AB
:0405E40000F7773372
:0405E800FE04278363
:0405EC00FFF7C693BC
:0405F000FE842783DB
:0405F40000F6F7B363
:0405F80000F767336E
:0405FC00FB44278312
:0406000000F70733C5
:04060400FE44278306
:0406080000F70733BD
:04060C00A83047B714
:0406100000078793C5
:040614006137879330
:0406180000F707B32D
:04061C00FEF42223A3
:04062000FE442783EA
:0406240000F7D713F1
:04062800011797938C
:04062C0000F767B3B9
:04063000FEF422238F
:04063400FE44270356
:04063800FE04278312
:04063C0000F707B309
:04064000FEF422237F
:04064400FE44270346
:04064800FE04278302
:04064C0000F7773309
:04065000FE442783BA
:04065400FFF7C69353
:04065800FEC4278332
:04065C0000F6F7B3FA
:0406600000F7673305
:04066400FB84278369
:0406680000F707335D
:04066C00FE8427835E
:0406700000F7073355
:04067400FD4697B7F1
:04067800000787935D
:04067C0050178793F9
:0406800000F707B3C5
:04068400FEF4242339
:04068800FE84278342
:04068C0000A7D713D9
:0406900001679793D4
:0406940000F767B351
:04069800FEF4242325
:04069C00FE842703AE
:0406A000FE4427836A
:0406A40000F707B3A1
:0406A800FEF4242315
:0406AC00FE8427039E
:0406B000FE4427835A
:0406B40000F77733A1
:0406B800FE84278312
:0406BC00FFF7C693EB
:0406C000FE0427838A
:0406C40000F6F7B392
:0406C80000F767339D
:0406CC00FBC42783C1
:0406D00000F70733F5
:0406D400FEC42783B6
:0406D80000F70733ED
:0406DC006980A7B7D3
:0406E00000078793F5
:0406E4008D878793E4
:0406E80000F707B35D
:0406EC00FEF42623CF
:0406F000FEC427839A
:0406F40000779713E1
:0406F8000197D793FC
:0406FC0000F767B3E9
:04070000FEF42623BA
:04070400FEC4270305
:04070800FE842783C1
:04070C0000F707B338
:04071000FEF42623AA
:04071400FEC42703F5
:04071800FE842783B1
:04071C0000F7773338
:04072000FEC4278369
:04072400FFF7C69382
:04072800FE442783E1
:04072C0000F6F7B329
:0407300000F7673334
:04073400FC04278317
:0407380000F707338C
:04073C00FE0427830D
:0407400000F7073384
:040744008B44F7B734
:04074800000787938C
:04074C007AF787931E
:0407500000F707B3F4
:04075400FEF420236C
:04075800FE042783F1
:04075C0000C7971328
:040760000147D793E3
:0407640000F767B380
:04076800FEF4202358
:04076C00FE0427035D
:04077000FEC4278319
:0407740000F707B3D0
:04077800FEF4202348
:04077C00FE0427034D
:04078000FEC4278309
:0407840000F77733D0
:04078800FE042783C1
:04078C00FFF7C6931A
:04079000FE84278339
:0407940000F6F7B3C1
:0407980000F76733CC
:04079C00FC4427836F
:0407A00000F7073324
:0407A400FE44278365
:0407A80000F707331C
:0407AC00FFFF67B72D
:0407B0000007879324
:0407B400BB17879355
:0407B80000F707B38C
:0407BC00FEF4222302
:0407C000FE44278349
:0407C40000F7D71350
:0407C80001179793EB
:0407CC0000F767B318
:0407D000FEF42223EE
:0407D400FE442703B5
:0407D800FE04278371
:0407DC0000F707B368
:0407E000FEF42223DE
:0407E400FE442703A5
:0407E800FE04278361
:0407EC0000F7773368
:0407F000FE44278319
:0407F400FFF7C693B2
:0407F800FEC4278391
:0407FC0000F6F7B359
:0408000000F7673363
:04080400FC842783C6
:0408080000F70733BB
:04080C00FE842783BC
:0408100000F70733B3
:04081400895CD7B76D
:0408180000078793BB
:04081C007BE787935C
:0408200000F707B323
:04082400FEF4242397
:04082800FE842783A0
:04082C0000A7D71337
:040830000167979332
:0408340000F767B3AF
:04083800FEF4242383
:04083C00FE8427030C
:04084000FE442783C8
:0408440000F707B3FF
:04084800FEF4242373
:04084C00FE842703FC
:04085000FE442783B8
:0408540000F77733FF
:04085800FE84278370
:04085C00FFF7C69349
:04086000FE042783E8
:0408640000F6F7B3F0
:0408680000F76733FB
:04086C00FCC427831E
:0408700000F7073353
:04087400FEC4278314
:0408780000F707334B
:04087C006B9017B7AF
:040880000007879353
:04088400122787931D
:0408880000F707B3BB
:04088C00FEF426232D
:04089000FEC42783F8
:04089400007797133F
:040898000197D7935A
:04089C0000F767B347
:0408A000FEF4262319
:0408A400FEC4270364
:0408A800FE84278320
:0408AC0000F707B397
:0408B000FEF4262309
:0408B400FEC4270354
:0408B800FE84278310
:0408BC0000F7773397
:0408C000FEC42783C8
:0408C400FFF7C693E1
:0408C800FE44278340
:0408CC0000F6F7B388
:0408D00000F7673393
:0408D400FD04278375
:0408D80000F70733EB
:0408DC00FE0427836C
:0408E00000F70733E3
:0408E400FD9877B74D
:0408E80000078793EB
:0408EC00193787939E
:0408F00000F707B353
:0408F400FEF42023CB
:0408F800FE04278350
:0408FC0000C7971387
:040900000147D79341
:0409040000F767B3DE
:04090800FEF42023B6
:04090C00FE042703BB
:04091000FEC4278377
:0409140000F707B32E
:04091800FEF42023A6
:04091C00FE042703AB
:04092000FEC4278367
:0409240000F777332E
:04092800FE0427831F
:04092C00FFF7C69378
:04093000FE84278397
:0409340000F6F7B31F
:0409380000F767332A
:04093C00FD442783CC
:0409400000F7073382
:04094400FE442783C3
:0409480000F707337A
:04094C00A67947B78A
:040950000007879382
:0409540038E7879366
:0409580000F707B3EA
:04095C00FEF4222360
:04096000FE442783A7
:0409640000F7D713AE
:040968000117979349
:04096C0000F767B376
:04097000FEF422234C
:04097400FE44270313
:04097800FE042783CF
:04097C0000F707B3C6
:04098000FEF422233C
:04098400FE44270303
:04098800FE042783BF
:04098C0000F77733C6
:04099000FE44278377
:04099400FFF7C69310
:04099800FEC42783EF
:04099C0000F6F7B3B7
:0409A00000F76733C2
:0409A400FD84278324
:0409A80000F707331A
:0409AC00FE8427831B
:0409B00000F7073312
:0409B40049B417B774
:0409B800000787931A
:0409BC008217879384
:0409C00000F707B382
:0409C400FEF42423F6
:0409C800FE842783FF
:0409CC0000A7D71396
:0409D0000167979391
:0409D40000F767B30E
:0409D800FEF42423E2
:0409DC00FE8427036B
:0409E000FE44278327
:0409E40000F707B35E
:0409E800FEF42423D2
:0409EC00FE8427035B
:0409F000FE04278357
:0409F40000F777335E
:0409F800FE0427834F
:0409FC00FFF7C693A8
:040A0000FE44278306
:040A040000F6F7B34E
:040A080000F7673359
:040A0C00FA0427833E
:040A100000F70733B1
:040A1400FEC4278372
:040A180000F70733A9
:040A1C00F61E27B7E4
:040A200000078793B1
:040A24005627879337
:040A280000F707B319
:040A2C00FEF426238B
:040A3000FEC4278356
:040A340000579713BD
:040A380001B7D79398
:040A3C0000F767B3A5
:040A4000FEF4262377
:040A4400FEC42703C2
:040A4800FE8427837E
:040A4C0000F707B3F5
:040A5000FEF4262367
:040A5400FEC42703B2
:040A5800FE442783AE
:040A5C0000F77733F5
:040A6000FE442783A6
:040A6400FFF7C6933F
:040A6800FE8427835E
:040A6C0000F6F7B3E6
:040A700000F76733F1
:040A7400FB44278395
:040A780000F7073349
:040A7C00FE042783CA
:040A800000F7073341
:040A8400C040B7B700
:040A88000007879349
:040A8C003407879311
:040A900000F707B3B1
:040A9400FEF4202329
:040A9800FE042783AE
:040A9C000097971315
:040AA0000177D79370
:040AA40000F767B33D
:040AA800FEF4202315
:040AAC00FE0427031A
:040AB000FEC42783D6
:040AB40000F707B38D
:040AB800FEF4202305
:040ABC00FE0427030A
:040AC000FE84278306
:040AC40000F777338D
:040AC800FE842783FE
:040ACC00FFF7C693D7
:040AD000FEC42783B6
:040AD40000F6F7B37E
:040AD80000F7673389
:040ADC00FC842783EC
:040AE00000F70733E1
:040AE400FE44278322
:040AE80000F70733D9
:040AEC00265E67B764
:040AF00000078793E1
:040AF400A517879328
:040AF80000F707B349
:040AFC00FEF42223BF
:040B0000FE44278305
:040B040000E797135C
:040B08000127D79357
:040B0C0000F767B3D4
:040B1000FEF42223AA
:040B1400FE44270371
:040B1800FE0427832D
:040B1C0000F707B324
:040B2000FEF422239A
:040B2400FE44270361
:040B2800FEC427835D
:040B2C0000F7773324
:040B3000FEC4278355
:040B3400FFF7C6936E
:040B3800FE0427830D
:040B3C0000F6F7B315
:040B400000F7673320
:040B4400F9C4278346
:040B480000F7073378
:040B4C00FE84278379
:040B500000F7073370
:040B5400E9B6C7B780
:040B58000007879378
:040B5C007AA787935A
:040B600000F707B3E0
:040B6400FEF4242354
:040B6800FE8427835D
:040B6C0000C7D713D4
:040B7000014797930F
:040B740000F767B36C
:040B7800FEF4242340
:040B7C00FE842703C9
:040B8000FE44278385
:040B840000F707B3BC
:040B8800FEF4242330
:040B8C00FE842703B9
:040B9000FE042783B5
:040B940000F77733BC
:040B9800FE042783AD
:040B9C00FFF7C69306
:040BA000FE44278365
:040BA40000F6F7B3AD
:040BA80000F76733B8
:040BAC00FB0427839C
:040BB00000F7073310
:040BB400FEC42783D1
:040BB80000F7073308
:040BBC00D62F17B762
:040BC0000007879310
:040BC40005D7879337
:040BC80000F707B378
:040BCC00FEF42623EA
:040BD000FEC42783B5
:040BD400005797131C
:040BD80001B7D793F7
:040BDC0000F767B304
:040BE000FEF42623D6
:040BE400FEC4270321
:040BE800FE842783DD
:040BEC0000F707B354
:040BF000FEF42623C6
:040BF400FEC4270311
:040BF800FE4427830D
:040BFC0000F7773354
:040C0000FE44278304
:040C0400FFF7C6939D
:040C0800FE842783BC
:040C0C0000F6F7B344
:040C100000F767334F
:040C1400FC442783F2
:040C180000F70733A7
:040C1C00FE04278328
:040C200000F707339F
:040C2400024417B7B8
:040C280000078793A7
:040C2C00453787932E
:040C300000F707B30F
:040C3400FEF4202387
:040C3800FE0427830C
:040C3C000097971373
:040C40000177D793CE
:040C440000F767B39B
:040C4800FEF4202373
:040C4C00FE04270378
:040C5000FEC4278334
:040C540000F707B3EB
:040C5800FEF4202363
:040C5C00FE04270368
:040C6000FE84278364
:040C640000F77733EB
:040C6800FE8427835C
:040C6C00FFF7C69335
:040C7000FEC4278314
:040C740000F6F7B3DC
:040C780000F76733E7
:040C7C00FD84278349
:040C800000F707333F
:040C8400FE44278380
:040C880000F7073337
:040C8C00D8A1E7B74D
:040C9000000787933F
:040C940068178793C3
:040C980000F707B3A7
:040C9C00FEF422231D
:040CA000FE44278364
:040CA40000E79713BB
:040CA8000127D793B6
:040CAC0000F767B333
:040CB000FEF4222309
:040CB400FE442703D0
:040CB800FE0427838C
:040CBC0000F707B383
:040CC000FEF42223F9
:040CC400FE442703C0
:040CC800FEC42783BC
:040CCC0000F7773383
:040CD000FEC42783B4
:040CD400FFF7C693CD
:040CD800FE0427836C
:040CDC0000F6F7B374
:040CE00000F767337F
:040CE400FAC42783A4
:040CE80000F70733D7
:040CEC00FE842783D8
:040CF00000F70733CF
:040CF400E7D407B783
:040CF80000078793D7
:040CFC00BC87879397
:040D000000F707B33E
:040D0400FEF42423B2
:040D0800FE842783BB
:040D0C0000C7D71332
:040D1000014797936D
:040D140000F767B3CA
:040D1800FEF424239E
:040D1C00FE84270327
:040D2000FE442783E3
:040D240000F707B31A
:040D2800FEF424238E
:040D2C00FE84270317
:040D3000FE04278313
:040D340000F777331A
:040D3800FE0427830B
:040D3C00FFF7C69364
:040D4000FE442783C3
:040D440000F6F7B30B
:040D480000F7673316
:040D4C00FC042783F9
:040D500000F707336E
:040D5400FEC427832F
:040D580000F7073366
:040D5C0021E1D7B703
:040D6000000787936E
:040D6400DE6787932C
:040D680000F707B3D6
:040D6C00FEF4262348
:040D7000FEC4278313
:040D7400005797137A
:040D780001B7D79355
:040D7C0000F767B362
:040D8000FEF4262334
:040D8400FEC427037F
:040D8800FE8427833B
:040D8C0000F707B3B2
:040D9000FEF4262324
:040D9400FEC427036F
:040D9800FE4427836B
:040D9C0000F77733B2
:040DA000FE44278363
:040DA400FFF7C693FC
:040DA800FE8427831B
:040DAC0000F6F7B3A3
:040DB00000F76733AE
:040DB400FD44278350
:040DB80000F7073306
:040DBC00FE04278387
:040DC00000F70733FE
:040DC400C33707B773
:040DC8000007879306
:040DCC007D67879325
:040DD00000F707B36E
:040DD400FEF42023E6
:040DD800FE0427836B
:040DDC0000979713D2
:040DE0000177D7932D
:040DE40000F767B3FA
:040DE800FEF42023D2
:040DEC00FE042703D7
:040DF000FEC4278393
:040DF40000F707B34A
:040DF800FEF42023C2
:040DFC00FE042703C7
:040E0000FE842783C2
:040E040000F7773349
:040E0800FE842783BA
:040E0C00FFF7C69393
:040E1000FEC4278372
:040E140000F6F7B33A
:040E180000F7673345
:040E1C00FA842783AA
:040E200000F707339D
:040E2400FE442783DE
:040E280000F7073395
:040E2C00F4D517B72B
:040E3000000787939D
:040E3400D877879351
:040E380000F707B305
:040E3C00FEF422237B
:040E4000FE442783C2
:040E440000E7971319
:040E48000127D79314
:040E4C0000F767B391
:040E5000FEF4222367
:040E5400FE4427032E
:040E5800FE042783EA
:040E5C0000F707B3E1
:040E6000FEF4222357
:040E6400FE4427031E
:040E6800FEC427831A
:040E6C0000F77733E1
:040E7000FEC4278312
:040E7400FFF7C6932B
:040E7800FE042783CA
:040E7C0000F6F7B3D2
:040E800000F76733DD
:040E8400FBC4278301
:040E880000F7073335
:040E8C00FE84278336
:040E900000F707332D
:040E9400455A17B7ED
:040E98000007879335
:040E9C004ED7879313
:040EA00000F707B39D
:040EA400FEF4242311
:040EA800FE8427831A
:040EAC0000C7D71391
:040EB00001479793CC
:040EB40000F767B329
:040EB800FEF42423FD
:040EBC00FE84270386
:040EC000FE44278342
:040EC40000F707B379
:040EC800FEF42423ED
:040ECC00FE84270376
:040ED000FE04278372
:040ED40000F7773379
:040ED800FE0427836A
:040EDC00FFF7C693C3
:040EE000FE44278322
:040EE40000F6F7B36A
:040EE80000F7673375
:040EEC00FD04278357
:040EF00000F70733CD
:040EF400FEC427838E
:040EF80000F70733C5
:040EFC00A9E3F7B7B8
:040F000000078793CC
:040F040090578793E8
:040F080000F707B334
:040F0C00FEF42623A6
:040F1000FEC4278371
:040F140000579713D8
:040F180001B7D793B3
:040F1C0000F767B3C0
:040F2000FEF4262392
:040F2400FEC42703DD
:040F2800FE84278399
:040F2C0000F707B310
:040F3000FEF4262382
:040F3400FEC42703CD
:040F3800FE442783C9
:040F3C0000F7773310
:040F4000FE442783C1
:040F4400FFF7C6935A
:040F4800FE84278379
:040F4C0000F6F7B301
:040F500000F767330C
:040F5400FA442783B1
:040F580000F7073364
:040F5C00FE042783E5
:040F600000F707335C
:040F6400FCEFA7B740
:040F68000007879364
:040F6C003F878793A1
:040F700000F707B3CC
:040F7400FEF4202344
:040F7800FE042783C9
:040F7C000097971330
:040F80000177D7938B
:040F840000F767B358
:040F8800FEF4202330
:040F8C00FE04270335
:040F9000FEC42783F1
:040F940000F707B3A8
:040F9800FEF4202320
:040F9C00FE04270325
:040FA000FE84278321
:040FA40000F77733A8
:040FA800FE84278319
:040FAC00FFF7C693F2
:040FB000FEC42783D1
:040FB40000F6F7B399
:040FB80000F76733A4
:040FBC00FB84278308
:040FC00000F70733FC
:040FC400FE4427833D
:040FC80000F70733F4
:040FCC00676F07B78D
:040FD00000078793FC
:040FD4002D9787933B
:040FD80000F707B364
:040FDC00FEF42223DA
:040FE000FE44278321
:040FE40000E7971378
:040FE8000127D79373
:040FEC000080006F12
:040FF0007950006FC5
:040FF40000F767B3E8
:040FF800FEF42223BE
:040FFC00FE44270385
:04100000FE04278340
:0410040000F707B337
:04100800FEF42223AD
:04100C00FE44270374
:04101000FEC4278370
:0410140000F7773337
:04101800FEC4278368
:04101C00FFF7C69381
:04102000FE04278320
:0410240000F6F7B328
:0410280000F7673333
:04102C00FCC4278356
:0410300000F707338B
:04103400FE8427838C
:0410380000F7073383
:04103C008D2A57B7EB
:04104000000787938B
:04104400C8A787931F
:0410480000F707B3F3
:04104C00FEF4242367
:04105000FE84278370
:0410540000C7D713E7
:041058000147979322
:04105C0000F767B37F
:04106000FEF4242353
:04106400FE842703DC
:04106800FE44278398
:04106C0000F707B3CF
:04107000FEF4242343
:04107400FE842703CC
:04107800FE44278388
:04107C0000F74733FF
:04108000FE042783C0
:0410840000F74733F7
:04108800FB042783BB
:04108C0000F707332F
:04109000FEC42783F0
:0410940000F7073327
:04109800FFFA47B75D
:04109C00000787932F
:0410A0009427879377
:0410A40000F707B397
:0410A800FEF4262309
:0410AC00FEC42783D4
:0410B000004797134B
:0410B40001C7D79306
:0410B80000F767B323
:0410BC00FEF42623F5
:0410C000FEC4270340
:0410C400FE842783FC
:0410C80000F707B373
:0410CC00FEF42623E5
:0410D000FEC4270330
:0410D400FE842783EC
:0410D80000F74733A3
:0410DC00FE44278324
:0410E00000F747339B
:0410E400FBC427839F
:0410E80000F70733D3
:0410EC00FE04278354
:0410F00000F70733CB
:0410F4008771F7B752
:0410F80000078793D3
:0410FC006817879357
:0411000000F707B33A
:04110400FEF42023B2
:04110800FE04278337
:04110C0000B797137E
:041110000157D79319
:0411140000F767B3C6
:04111800FEF420239E
:04111C00FE042703A3
:04112000FEC427835F
:0411240000F707B316
:04112800FEF420238E
:04112C00FE04270393
:04113000FEC427834F
:0411340000F7473346
:04113800FE84278387
:04113C0000F747333E
:04114000FC84278381
:0411440000F7073376
:04114800FE442783B7
:04114C0000F707336E
:041150006D9D67B773
:041154000007879376
:041158001227879340
:04115C0000F707B3DE
:04116000FEF4222354
:04116400FE4427839B
:0411680001079713D1
:04116C000107D7930D
:0411700000F767B36A
:04117400FEF4222340
:04117800FE44270307
:04117C00FE042783C3
:0411800000F707B3BA
:04118400FEF4222330
:04118800FE442703F7
:04118C00FE042783B3
:0411900000F74733EA
:04119400FEC42783EB
:0411980000F74733E2
:04119C00FD44278364
:0411A00000F707331A
:0411A400FE8427831B
:0411A80000F7073312
:0411AC00FDE547B75F
:0411B000000787931A
:0411B40080C78793D6
:0411B80000F707B382
:0411BC00FEF42423F6
:0411C000FE842783FF
:0411C4000097D713A6
:0411C8000177979381
:0411CC0000F767B30E
:0411D000FEF42423E2
:0411D400FE8427036B
:0411D800FE44278327
:0411DC0000F707B35E
:0411E000FEF42423D2
:0411E400FE8427035B
:0411E800FE44278317
:0411EC0000F747338E
:0411F000FE0427834F
:0411F40000F7473386
:0411F800FA0427834B
:0411FC0000F70733BE
:04120000FEC427837E
:0412040000F70733B5
:04120800A4BEF7B7D2
:04120C0000078793BD
:04121000A4478793D5
:0412140000F707B325
:04121800FEF4262397
:04121C00FEC4278362
:0412200000479713D9
:0412240001C7D79394
:0412280000F767B3B1
:04122C00FEF4262383
:04123000FEC42703CE
:04123400FE8427838A
:0412380000F707B301
:04123C00FEF4262373
:04124000FEC42703BE
:04124400FE8427837A
:0412480000F7473331
:04124C00FE442783B2
:0412500000F7473329
:04125400FAC427832E
:0412580000F7073361
:04125C00FE042783E2
:0412600000F7073359
:041264004BDED7B7CF
:041268000007879361
:04126C00FA978793D3
:0412700000F707B3C9
:04127400FEF4202341
:04127800FE042783C6
:04127C0000B797130D
:041280000157D793A8
:0412840000F767B355
:04128800FEF420232D
:04128C00FE04270332
:04129000FEC42783EE
:0412940000F707B3A5
:04129800FEF420231D
:04129C00FE04270322
:0412A000FEC42783DE
:0412A40000F74733D5
:0412A800FE84278316
:0412AC0000F74733CD
:0412B000FB84278311
:0412B40000F7073305
:0412B800FE44278346
:0412BC0000F70733FD
:0412C000F6BB57B76B
:0412C4000007879305
:0412C800B60787934B
:0412CC0000F707B36D
:0412D000FEF42223E3
:0412D400FE4427832A
:0412D8000107971360
:0412DC000107D7939C
:0412E00000F767B3F9
:0412E400FEF42223CF
:0412E800FE44270396
:0412EC00FE04278352
:0412F00000F707B349
:0412F400FEF42223BF
:0412F800FE44270386
:0412FC00FE04278342
:0413000000F7473378
:04130400FEC4278379
:0413080000F7473370
:04130C00FC442783F3
:0413100000F70733A8
:04131400FE842783A9
:0413180000F70733A0
:04131C00BEBFC7B7D2
:0413200000078793A8
:04132400C7078793DD
:0413280000F707B310
:04132C00FEF4242384
:04133000FE8427838D
:041334000097D71334
:04133800017797930F
:04133C0000F767B39C
:04134000FEF4242370
:04134400FE842703F9
:04134800FE442783B5
:04134C0000F707B3EC
:04135000FEF4242360
:04135400FE842703E9
:04135800FE442783A5
:04135C0000F747331C
:04136000FE042783DD
:0413640000F7473314
:04136800FD042783D6
:04136C0000F707334C
:04137000FEC427830D
:0413740000F7073344
:04137800289B87B770
:04137C00000787934C
:04138000EC678793FC
:0413840000F707B3B4
:04138800FEF4262326
:04138C00FEC42783F1
:041390000047971368
:0413940001C7D79323
:0413980000F767B340
:04139C00FEF4262312
:0413A000FEC427035D
:0413A400FE84278319
:0413A80000F707B390
:0413AC00FEF4262302
:0413B000FEC427034D
:0413B400FE84278309
:0413B80000F74733C0
:0413BC00FE44278341
:0413C00000F74733B8
:0413C400F9C42783BE
:0413C80000F70733F0
:0413CC00FE04278371
:0413D00000F70733E8
:0413D400EAA127B7AC
:0413D80000078793F0
:0413DC007FA78793CD
:0413E00000F707B358
:0413E400FEF42023D0
:0413E800FE04278355
:0413EC0000B797139C
:0413F0000157D79337
:0413F40000F767B3E4
:0413F800FEF42023BC
:0413FC00FE042703C1
:04140000FEC427837C
:0414040000F707B333
:04140800FEF42023AB
:04140C00FE042703B0
:04141000FEC427836C
:0414140000F7473363
:04141800FE842783A4
:04141C0000F747335B
:04142000FA842783A0
:0414240000F7073393
:04142800FE442783D4
:04142C0000F707338B
:04143000D4EF37B707
:041434000007879393
:041438000857879337
:04143C0000F707B3FB
:04144000FEF4222371
:04144400FE442783B8
:0414480001079713EE
:04144C000107D7932A
:0414500000F767B387
:04145400FEF422235D
:04145800FE44270324
:04145C00FE042783E0
:0414600000F707B3D7
:04146400FEF422234D
:04146800FE44270314
:04146C00FE042783D0
:0414700000F7473307
:04147400FEC4278308
:0414780000F74733FF
:04147C00FB44278383
:0414800000F7073337
:04148400FE84278338
:0414880000F707332F
:04148C00048827B7F2
:041490000007879337
:04149400D057879313
:0414980000F707B39F
:04149C00FEF4242313
:0414A000FE8427831C
:0414A4000097D713C3
:0414A800017797939E
:0414AC0000F767B32B
:0414B000FEF42423FF
:0414B400FE84270388
:0414B800FE44278344
:0414BC0000F707B37B
:0414C000FEF42423EF
:0414C400FE84270378
:0414C800FE44278334
:0414CC0000F74733AB
:0414D000FE0427836C
:0414D40000F74733A3
:0414D800FC04278366
:0414DC0000F70733DB
:0414E000FEC427839C
:0414E40000F70733D3
:0414E800D9D4D7B7C5
:0414EC0000078793DB
:0414F0000397879344
:0414F40000F707B343
:0414F800FEF42623B5
:0414FC00FEC4278380
:0415000000479713F6
:0415040001C7D793B1
:0415080000F767B3CE
:04150C00FEF42623A0
:04151000FEC42703EB
:04151400FE842783A7
:0415180000F707B31E
:04151C00FEF4262390
:04152000FEC42703DB
:04152400FE84278397
:0415280000F747334E
:04152C00FE442783CF
:0415300000F7473346
:04153400FCC4278349
:0415380000F707337E
:04153C00FE042783FF
:0415400000F7073376
:04154400E6DBA7B784
:04154800000787937E
:04154C009E5787938C
:0415500000F707B3E6
:04155400FEF420235E
:04155800FE042783E3
:04155C0000B797132A
:041560000157D793C5
:0415640000F767B372
:04156800FEF420234A
:04156C00FE0427034F
:04157000FEC427830B
:0415740000F707B3C2
:04157800FEF420233A
:04157C00FE0427033F
:04158000FEC42783FB
:0415840000F74733F2
:04158800FE84278333
:04158C0000F74733EA
:04159000FD8427832C
:0415940000F7073322
:04159800FE44278363
:04159C0000F707331A
:0415A0001FA287B748
:0415A4000007879322
:0415A800CF878793CF
:0415AC0000F707B38A
:0415B000FEF4222300
:0415B400FE44278347
:0415B800010797137D
:0415BC000107D793B9
:0415C00000F767B316
:0415C400FEF42223EC
:0415C800FE442703B3
:0415CC00FE0427836F
:0415D00000F707B366
:0415D400FEF42223DC
:0415D800FE442703A3
:0415DC00FE0427835F
:0415E00000F7473396
:0415E400FEC4278397
:0415E80000F747338E
:0415EC00FA44278313
:0415F00000F70733C6
:0415F400FE842783C7
:0415F80000F70733BE
:0415FC00C4AC57B76D
:0416000000078793C5
:04160400665787930B
:0416080000F707B32D
:04160C00FEF42423A1
:04161000FE842783AA
:041614000097D71351
:04161800017797932C
:04161C0000F767B3B9
:04162000FEF424238D
:04162400FE84270316
:04162800FE442783D2
:04162C0000F707B309
:04163000FEF424237D
:04163400FE04278306
:04163800FFF7C713DE
:04163C00FE8427837E
:0416400000F7673315
:04164400FE442783B6
:0416480000F747332D
:04164C00F9C4278333
:0416500000F7073365
:04165400FEC4278326
:0416580000F707335D
:04165C00F42927B78F
:041660000007879365
:0416640024478793FD
:0416680000F707B3CD
:04166C00FEF426233F
:04167000FEC427830A
:041674000067971361
:0416780001A7D7935C
:04167C0000F767B359
:04168000FEF426232B
:04168400FEC4270376
:04168800FE84278332
:04168C0000F707B3A9
:04169000FEF426231B
:04169400FE44278366
:04169800FFF7C7137E
:04169C00FEC42783DE
:0416A00000F76733B5
:0416A400FE84278316
:0416A80000F74733CD
:0416AC00FB84278311
:0416B00000F7073305
:0416B400FE04278386
:0416B80000F70733FD
:0416BC00432B07B7FE
:0416C0000007879305
:0416C400F977879398
:0416C80000F707B36D
:0416CC00FEF42023E5
:0416D000FE0427836A
:0416D40000A79713C1
:0416D8000167D7933C
:0416DC0000F767B3F9
:0416E000FEF42023D1
:0416E400FE042703D6
:0416E800FEC4278392
:0416EC0000F707B349
:0416F000FEF42023C1
:0416F400FE842783C6
:0416F800FFF7C7131E
:0416FC00FE0427833E
:0417000000F7673354
:04170400FEC4278375
:0417080000F747336C
:04170C00FD442783EE
:0417100000F70733A4
:04171400FE442783E5
:0417180000F707339C
:04171C00AB9427B7AC
:0417200000078793A4
:041724003A778793F6
:0417280000F707B30C
:04172C00FEF4222382
:04173000FE442783C9
:0417340000F7971310
:041738000117D7932B
:04173C0000F767B398
:04174000FEF422236E
:04174400FE44270335
:04174800FE042783F1
:04174C0000F707B3E8
:04175000FEF422235E
:04175400FEC4278325
:04175800FFF7C713BD
:04175C00FE4427839D
:0417600000F76733F4
:04176400FE042783D5
:0417680000F747330C
:04176C00FB042783D0
:0417700000F7073344
:04177400FE84278345
:0417780000F707333C
:04177C00FC93A7B77C
:041780000007879344
:0417840003978793AD
:0417880000F707B3AC
:04178C00FEF4242320
:04179000FE84278329
:0417940000B7D713B0
:0417980001579793CB
:04179C0000F767B338
:0417A000FEF424230C
:0417A400FE84270395
:0417A800FE44278351
:0417AC0000F707B388
:0417B000FEF42423FC
:0417B400FE04278385
:0417B800FFF7C7135D
:0417BC00FE842783FD
:0417C00000F7673394
:0417C400FE44278335
:0417C80000F74733AC
:0417CC00FCC42783AF
:0417D00000F70733E4
:0417D400FEC42783A5
:0417D80000F70733DC
:0417DC00655B67B72B
:0417E00000078793E4
:0417E4009C37879314
:0417E80000F707B34C
:0417EC00FEF42623BE
:0417F000FEC4278389
:0417F40000679713E0
:0417F80001A7D793DB
:0417FC0000F767B3D8
:04180000FEF42623A9
:04180400FEC42703F4
:04180800FE842783B0
:04180C0000F707B327
:04181000FEF4262399
:04181400FE442783E4
:04181800FFF7C713FC
:04181C00FEC427835C
:0418200000F7673333
:04182400FE84278394
:0418280000F747334B
:04182C00FA84278390
:0418300000F7073383
:04183400FE04278304
:0418380000F707337B
:04183C008F0CD7B77F
:041840000007879383
:04184400C927879396
:0418480000F707B3EB
:04184C00FEF4202363
:04185000FE042783E8
:0418540000A797133F
:041858000167D793BA
:04185C0000F767B377
:04186000FEF420234F
:04186400FE04270354
:04186800FEC4278310
:04186C0000F707B3C7
:04187000FEF420233F
:04187400FE84278344
:04187800FFF7C7139C
:04187C00FE042783BC
:0418800000F76733D3
:04188400FEC42783F4
:0418880000F74733EB
:04188C00FC4427836E
:0418900000F7073323
:04189400FE44278364
:0418980000F707331B
:04189C00FFEFF7B7AC
:0418A0000007879323
:0418A40047D7879308
:0418A80000F707B38B
:0418AC00FEF4222301
:0418B000FE44278348
:0418B40000F797138F
:0418B8000117D793AA
:0418BC0000F767B317
:0418C000FEF42223ED
:0418C400FE442703B4
:0418C800FE04278370
:0418CC0000F707B367
:0418D000FEF42223DD
:0418D400FEC42783A4
:0418D800FFF7C7133C
:0418DC00FE4427831C
:0418E00000F7673373
:0418E400FE04278354
:0418E80000F747338B
:0418EC00FA04278350
:0418F00000F70733C3
:0418F400FE842783C4
:0418F80000F70733BB
:0418FC00858467B7C1
:0419000000078793C2
:04190400DD178793D1
:0419080000F707B32A
:04190C00FEF424239E
:04191000FE842783A7
:0419140000B7D7132E
:041918000157979349
:04191C0000F767B3B6
:04192000FEF424238A
:04192400FE84270313
:04192800FE442783CF
:04192C0000F707B306
:04193000FEF424237A
:04193400FE04278303
:04193800FFF7C713DB
:04193C00FE8427837B
:0419400000F7673312
:04194400FE442783B3
:0419480000F747332A
:04194C00FBC427832E
:0419500000F7073362
:04195400FEC4278323
:0419580000F707335A
:04195C006FA887B732
:041960000007879362
:04196400E4F787938A
:0419680000F707B3CA
:04196C00FEF426233C
:04197000FEC4278307
:04197400006797135E
:0419780001A7D79359
:04197C0000F767B356
:04198000FEF4262328
:04198400FEC4270373
:04198800FE8427832F
:04198C0000F707B3A6
:04199000FEF4262318
:04199400FE44278363
:04199800FFF7C7137B
:04199C00FEC42783DB
:0419A00000F76733B2
:0419A400FE84278313
:0419A80000F74733CA
:0419AC00FD8427830C
:0419B00000F7073302
:0419B400FE04278383
:0419B80000F70733FA
:0419BC00FE2CE7B75F
:0419C0000007879302
:0419C4006E07879390
:0419C80000F707B36A
:0419CC00FEF42023E2
:0419D000FE04278367
:0419D40000A79713BE
:0419D8000167D79339
:0419DC0000F767B3F6
:0419E000FEF42023CE
:0419E400FE042703D3
:0419E800FEC427838F
:0419EC0000F707B346
:0419F000FEF42023BE
:0419F400FE842783C3
:0419F800FFF7C7131B
:0419FC00FE0427833B
:041A000000F7673351
:041A0400FEC4278372
:041A080000F7473369
:041A0C00FB442783ED
:041A100000F70733A1
:041A1400FE442783E2
:041A180000F7073399
:041A1C00A30147B724
:041A200000078793A1
:041A2400314787932C
:041A280000F707B309
:041A2C00FEF422237F
:041A3000FE442783C6
:041A340000F797130D
:041A38000117D79328
:041A3C0000F767B395
:041A4000FEF422236B
:041A4400FE44270332
:041A4800FE042783EE
:041A4C0000F707B3E5
:041A5000FEF422235B
:041A5400FEC4278322
:041A5800FFF7C713BA
:041A5C00FE4427839A
:041A600000F76733F1
:041A6400FE042783D2
:041A680000F7473309
:041A6C00FD042783CB
:041A700000F7073341
:041A7400FE84278342
:041A780000F7073339
:041A7C004E0817B742
:041A80000007879341
:041A84001A17879313
:041A880000F707B3A9
:041A8C00FEF424231D
:041A9000FE84278326
:041A940000B7D713AD
:041A980001579793C8
:041A9C0000F767B335
:041AA000FEF4242309
:041AA400FE84270392
:041AA800FE4427834E
:041AAC0000F707B385
:041AB000FEF42423F9
:041AB400FE04278382
:041AB800FFF7C7135A
:041ABC00FE842783FA
:041AC00000F7673391
:041AC400FE44278332
:041AC80000F74733A9
:041ACC00FAC42783AE
:041AD00000F70733E1
:041AD400FEC42783A2
:041AD80000F70733D9
:041ADC00F75387B77E
:041AE00000078793E1
:041AE400E8278793D5
:041AE80000F707B349
:041AEC00FEF42623BB
:041AF000FEC4278386
:041AF40000679713DD
:041AF80001A7D793D8
:041AFC0000F767B3D5
:041B0000FEF42623A6
:041B0400FEC42703F1
:041B0800FE842783AD
:041B0C0000F707B324
:041B1000FEF4262396
:041B1400FE442783E1
:041B1800FFF7C713F9
:041B1C00FEC4278359
:041B200000F7673330
:041B2400FE84278391
:041B280000F7473348
:041B2C00FC8427838B
:041B300000F7073380
:041B3400FE04278301
:041B380000F7073378
:041B3C00BD3AF7B700
:041B40000007879380
:041B44002357879309
:041B480000F707B3E8
:041B4C00FEF4202360
:041B5000FE042783E5
:041B540000A797133C
:041B58000167D793B7
:041B5C0000F767B374
:041B6000FEF420234C
:041B6400FE04270351
:041B6800FEC427830D
:041B6C0000F707B3C4
:041B7000FEF420233C
:041B7400FE84278341
:041B7800FFF7C71399
:041B7C00FE042783B9
:041B800000F76733D0
:041B8400FEC42783F1
:041B880000F74733E8
:041B8C00FA4427836D
:041B900000F7073320
:041B9400FE44278361
:041B980000F7073318
:041B9C002AD7D7B7B6
:041BA0000007879320
:041BA4002BB7879341
:041BA80000F707B388
:041BAC00FEF42223FE
:041BB000FE44278345
:041BB40000F797138C
:041BB8000117D793A7
:041BBC0000F767B314
:041BC000FEF42223EA
:041BC400FE442703B1
:041BC800FE0427836D
:041BCC0000F707B364
:041BD000FEF42223DA
:041BD400FEC42783A1
:041BD800FFF7C71339
:041BDC00FE44278319
:041BE00000F7673370
:041BE400FE04278351
:041BE80000F7473388
:041BEC00FC0427834B
:041BF00000F70733C0
:041BF400FE842783C1
:041BF80000F70733B8
:041BFC00EB86D7B7E6
:041C000000078793BF
:041C04003917879372
:041C080000F707B327
:041C0C00FEF424239B
:041C1000FE842783A4
:041C140000B7D7132B
:041C18000157979346
:041C1C0000F767B3B3
:041C2000FEF4242387
:041C2400FE84270310
:041C2800FE442783CC
:041C2C0000F707B303
:041C3000FEF4242377
:041C3400F8C4278346
:041C38000007A703F7
:041C3C00FEC4278338
:041C400000F707336F
:041C4400F8C4278336
:041C480000E7A023EE
:041C4C00F8C427832E
:041C5000004787932F
:041C54000007A6835C
:041C5800F8C4278322
:041C5C000047879323
:041C6000FE842703D4
:041C640000E68733DC
:041C680000E7A023CE
:041C6C00F8C427830E
:041C700000878793CF
:041C74000007A6833C
:041C7800F8C4278302
:041C7C0000878793C3
:041C8000FE442703F4
:041C840000E68733BC
:041C880000E7A023AE
:041C8C00F8C42783EE
:041C900000C787936F
:041C94000007A6831C
:041C9800F8C42783E2
:041C9C0000C7879363
:041CA000FE04270314
:041CA40000E687339C
:041CA80000E7A0238E
:041CAC00F9C40793DD
:041CB0000400061313
:041CB4000000059394
:041CB80000F0053300
:041CBC00000003170A
:041CC000268300E790
:041CC4000000001309
:041CC80007C12083AD
:041CCC000781240365
:041CD00008010113F3
:041CD4000000806725
:041CD800FD010113F6
:041CDC000281262338
:041CE00003010413E5
:041CE400FCA42E230B
:041CE800FCB42C23F9
:041CEC00FCC42A23E7
:041CF000FE042623A5
:041CF400FE042423A3
:041CF8000D40006F2C
:041CFC00FEC4278378
:041D0000002797938E
:041D0400FD84270330
:041D080000F707B326
:041D0C000007A683A3
:041D1000FDC42703E4
:041D1400FE8427839F
:041D180000F707B316
:041D1C000FF6F713B4
:041D200000E7802335
:041D2400FEC427834F
:041D28000027979366
:041D2C00FD84270308
:041D300000F707B3FE
:041D34000007A7837A
:041D38000087D693B7
:041D3C00FE84278377
:041D4000001787936E
:041D4400FDC42703B0
:041D480000F707B3E6
:041D4C000FF6F71384
:041D500000E7802305
:041D5400FEC427831F
:041D58000027979336
:041D5C00FD842703D8
:041D600000F707B3CE
:041D64000007A7834A
:041D68000107D69306
:041D6C00FE84278347
:041D7000002787932E
:041D7400FDC4270380
:041D780000F707B3B6
:041D7C000FF6F71354
:041D800000E78023D5
:041D8400FEC42783EF
:041D88000027979306
:041D8C00FD842703A8
:041D900000F707B39E
:041D94000007A7831A
:041D98000187D69356
:041D9C00FE84278317
:041DA00000378793EE
:041DA400FDC4270350
:041DA80000F707B386
:041DAC000FF6F71324
:041DB00000E78023A5
:041DB400FEC42783BF
:041DB80000178793F6
:041DBC00FEF42623E8
:041DC000FE842783F3
:041DC40000478793BA
:041DC800FEF42423DE
:041DCC00FE84270367
:041DD000FD44278324
:041DD400F2F764E3DB
:041DD80000000013F4
:041DDC0002C1240319
:041DE00003010113E7
:041DE4000000806714
:041DE800FD010113E5
:041DEC000281262327
:041DF00003010413D4
:041DF400FCA42E23FA
:041DF800FCB42C23E8
:041DFC00FCC42A23D6
:041E0000FE04262393
:041E0400FE04242391
:041E08000980006FDE
:041E0C00FD84270327
:041E1000FE842783A2
:041E140000F707B319
:041E18000007C78375
:041E1C0000F006B319
:041E2000FE84278392
:041E24000017879389
:041E2800FD8427030B
:041E2C0000F707B301
:041E30000007C7835D
:041E340000879793F9
:041E380000F6E73396
:041E3C00FE84278376
:041E4000002787935D
:041E4400FD84268370
:041E480000F687B366
:041E4C000007C78341
:041E5000010797935C
:041E540000F766B37A
:041E5800FE8427835A
:041E5C000037879331
:041E6000FD842703D3
:041E640000F707B3C9
:041E68000007C78325
:041E6C000187971340
:041E7000FEC4278302
:041E74000027979319
:041E7800FDC426037C
:041E7C0000F607B3B2
:041E800000E6E7335E
:041E840000E7A023B0
:041E8800FEC42783EA
:041E8C000017879321
:041E9000FEF4262313
:041E9400FE8427831E
:041E980000478793E5
:041E9C00FEF4242309
:041EA000FE84270392
:041EA400FD4427834F
:041EA800F6F762E304
:041EAC00000000131F
:041EB00002C1240344
:041EB4000301011312
:041EB800000080673F
:041EBC00FD01011310
:041EC0000281262352
:041EC40003010413FF
:041EC800FCA42E2325
:041ECC00FCB42C2313
:041ED000FCC42A2301
:041ED400FE042623BF
:041ED8000300006F94
:041EDC00FD84270357
:041EE000FEC4278392
:041EE40000F70733C9
:041EE800FDC426838C
:041EEC00FEC4278386
:041EF00000F687B3BE
:041EF4000007470399
:041EF80000E780235C
:041EFC00FEC4278376
:041F000000178793AC
:041F0400FEF426239E
:041F0800FEC42703E9
:041F0C00FD442783E6
:041F1000FCF766E391
:041F140000000013B6
:041F180002C12403DB
:041F1C0003010113A9
:041F200000008067D6
:041F2400FD010113A7
:041F280002812623E9
:041F2C000301041396
:041F3000FCA42E23BC
:041F3400FCB42C23AA
:041F3800FCC42A2398
:041F3C00FE04262356
:041F40000280006FAC
:041F4400FDC42703AE
:041F4800FEC4278329
:041F4C0000F707B3E0
:041F5000FD842703E2
:041F54000FF77713F9
:041F580000E78023FB
:041F5C00FEC4278315
:041F6000001787934C
:041F6400FEF426233E
:041F6800FEC4270389
:041F6C00FD44278386
:041F7000FCF76AE32D
:041F74000000001356
:041F780002C124037B
:041F7C000301011349
:041F80000000806776
:041F8400F80101134C
:041F880006112E23ED
:041F8C0006812C237B
:041F9000080104132D
:041F94000FC0E797FC
:041F98000AC787935A
:041F9C00FEF4242308
:041FA000FE042623F2
:041FA4000100006FC9
:041FA800FEC42783C9
:041FAC000017879300
:041FB000FEF42623F2
:041FB400FE8427037D
:041FB800FEC42783B9
:041FBC0000F707B370
:041FC0000007C783CC
:041FC400FE0792E39F
:041FC800F90407937E
:041FCC0000F00533E9
:041FD000FFFFE31715
:041FD400034300E7DC
:041FD800F90407936E
:041FDC00FEC4260316
:041FE000FE842583D3
:041FE40000F00533D1
:041FE800FFFFE317FD
:041FEC000A4300E7BD
:041FF000F9040713D6
:041FF400F804079353
:041FF80000E005B34D
:041FFC0000F00533B9
:04200000FFFFE317E4
:04200400220300E7CC
:04200800000007933A
:04200C0000F00533A8
:0420100007C1208361
:042014000781240319
:0420180008010113A7
:00000001FF
