:0400000000002437A1
:0400040000040413DD
:04000800000022973B
:04000C00FF8282935A
:040010000002A483C3
:04001400000022972F
:04001800FF028293CE
:04001C000002A30338
:040020000023131393
:040024000000291798
:04002800FE49091371
:04002C0040890933CB
:04003000006909B3A7
:040034000729CA636B
:04003800001B8B938B
:04003C00013902B3D1
:040040000012D313C4
:04004400008303B37F
:04004800048000EF41
:04004C000003A38387
:040050000093C863EE
:040054000074CA6307
:0400580000938C6322
:04005C000540006FEC
:04006000004309133D
:04006400FD1FF06F1D
:04006800FFC3099336
:04006C00FC9FF06F96
:0400700000002E1747
:04007400F98E0E13E0
:04007800408E0E3375
:04007C0041C30E333B
:04008000002E5A13E1
:0400840000830AB338
:04008800000AAB03BC
:04008C000240006FBF
:0400900000030EB3A8
:04009400FFCE8E937A
:04009800FFD04EE364
:04009C0001D3033356
:0400A00001D383B352
:0400A4000000806771
:0400A800FFF00A1348
:0400AC000040006FA1
:00000001FF
