:040000000040248315
:04000400008029034C
:0400080000C0298388
:04000C0001002A03C2
:0400100001E48A93EA
:040014000290202313
:04001800020024833B
:04001C00001A2B1388
:04002000001A3B1374
:0400240003FACB13FD
:0400280003CAEB1309
:04002C0003CAFB13F5
:0400300000549B13CA
:0400340000FA5B1360
:0400380040FA5B131C
:04003C0001448B33BD
:0400400001390B3344
:04004400414A8B336F
:0400480001391B332C
:04004C000144AB338D
:040050000144BB3379
:04005400013A4B33EF
:04005800013A5B33DB
:04005C00413A5B3397
:040060000124EB3359
:040064000124FB3345
:0400680001400BEF59
:04006C0002402483A7
:0400700002802903DE
:0400740002C029831A
:04007800000C0BE786
:04007C0003402223F8
:0400800003502423E2
:0400840003602623CC
:04008800000B8C6776
:04008C000000000070
:040090000040248385
:0400940000802903BC
:0400980000C02983F8
:04009C00012984B3FF
:0400A000014484B3E0
:0400A4000004A4832D
:0400A800009484B389
:0400AC000000000050
:0400B000008404B311
:0400B40000540913D8
:0400B8000014849319
:0400BC00FF249EE39C
:0400C00000548493D1
:00000001FF
